:1000000061C0000086C0000084C0000082C0000003
:1000100080C000007EC000007CC000007AC00000EC
:1000200078C0000076C0000074C0000072C00000FC
:1000300070C000006EC000006CC000006AC000000C
:100040000C948E0866C000000C9431110C945D1164
:1000500060C000005EC000005CC000005AC000002C
:1000600058C0000056C00000000000002400270017
:100070002A0000000000250028002B0000000000DE
:1000800023002600290004040404040404040202DA
:100090000202020203030303030301020408102007
:1000A0004080010204081020010204081020000012
:1000B0000008000201000003040700000000000027
:1000C0000000C41111241FBECFEFD8E0DEBFCDBFAA
:1000D00011E0A0E0B1E0EEEAF4E202C005900D927A
:1000E000AA33B107D9F722E0AAE3B1E001C01D921B
:1000F000A930B207E1F710E0C2E6D0E004C02197D2
:10010000FE010E944412C136D107C9F7F3D50C9401
:10011000551276CFCF92DF92EF92FF920F931F93FB
:10012000E82FF92F05C0015011092109310961F1AA
:10013000908196239417B9F305C001501109210944
:10014000310911F1908196239413F7CFC12CD12C52
:10015000E12CF12C0AC08FEFC81AD80AE80AF80A75
:100160000C151D052E053F0579F080818623841727
:1001700091F36C2D7D2D8E2D9F2D1F910F91FF9052
:10018000EF90DF90CF90089560E070E080E090E025
:100190001F910F91FF90EF90DF90CF900895EF9215
:1001A000FF920F931F93CF93DF93CDB7DEB72C97BA
:1001B0000FB6F894DEBF0FBECDBF69837A838B8301
:1001C0009C832D833E834F835887E986FA860B876D
:1001D0001C87898161E00E94A60A89819A81019623
:1001E0009C0189819A81AB81BC81A901BC01CD01AF
:1001F000F7D020E030E0A90169857A858B859C8560
:1002000026D71816ACF469857A858B859C8541D6EE
:10021000DC01CB018C016D817E818F81988539D67F
:10022000DC01CB019C0189819A81A801B9015AD1D5
:1002300089819A8101962C960FB6F894DEBF0FBE85
:10024000CDBFDF91CF911F910F91FF90EF90089557
:10025000CF93DF9300D000D000D01F92CDB7DEB790
:100260009B838A834C835D836E837F83CE0102965A
:10027000FC0180818823A1F1CE010296FC018081DE
:100280008150898320E030E0A9016C817D818E81DD
:100290009F818ED58823CCF48C819D81AE81BF81D6
:1002A000B0588C839D83AE83BF836C817D818E81AA
:1002B0009F81EFD59B01AC018981882F90E0A0E060
:1002C000B0E0BC01CD01ECD00BC06C817D818E8192
:1002D0009F81DAD5DC01CB01BC0189810E94ED0947
:1002E000000027960FB6F894DEBF0FBECDBFDF919A
:1002F000CF910895CF93DF9300D01F92CDB7DEB793
:100300009B838A83CE010296FC018081882389F039
:100310001982CE010296FC018081815089838981F6
:10032000882F90E0A0E0B0E040E050E0BC01CD01BB
:1003300057D000000F900F900F90DF91CF9108954C
:10034000CF93DF93CDB7DEB729970FB6F894DEBF12
:100350000FBECDBF6E837F83888799871C821B82E7
:100360001A8219821D828E819F81A885B985689421
:1003700012F8B695A795979587951694D1F79C8313
:100380008B838E8187708D838B819C81865C9E4F51
:10039000FC0140818D81282F30E081E090E002C097
:1003A000880F991F2A95E2F78423882F90E09A837B
:1003B000898389819A81892B31F08E819F81019671
:1003C0009A83898302C01A82198289819A81299627
:1003D0000FB6F894DEBF0FBECDBFDF91CF91089569
:1003E000CF93DF93CDB7DEB72A970FB6F894DEBF71
:1003F0000FBECDBF6D837E838F8398875A874987D1
:100400001A8219821B821C828D819E81AF81B885E0
:10041000689412F8B695A795979587951694D1F795
:100420009A8389838D8187708B838B81282F30E01D
:1004300081E090E002C0880F991F2A95E2F78C8333
:1004400089859A85892B99F48C8180958C83898103
:100450009A81865C9E4FFC0190818C81292F2823F4
:1004600089819A81865C9E4FFC0120830FC089811F
:100470009A81865C9E4FFC0190818C81292F282BCC
:1004800089819A81865C9E4FFC01208300002A9618
:100490000FB6F894DEBF0FBECDBFDF91CF910895A8
:1004A000CF93DF93CDB7DEB728970FB6F894DEBFB2
:1004B0000FBECDBF69837A838B839C832D833E835C
:1004C0004F8358878D819E812981BC01822F85D7DA
:1004D000000028960FB6F894DEBF0FBECDBFDF91A7
:1004E000CF910895CF93DF93CDB7DEB729970FB69D
:1004F000F894DEBF0FBECDBF9D838C837F836E8358
:10050000598748878C819D8182559F4F9A83898323
:1005100089819A81FC0184918B838B81882F90E063
:100520008330910549F18430910534F4813091058F
:1005300079F00297B9F0A0C08730910509F470C036
:100540008830910509F482C0049709F43FC094C033
:1005500084E490E0FC01208184E490E02068FC01C8
:1005600020838AC084E490E0FC01208184E490E050
:100570002062FC01208380C080E890E0FC01808143
:10058000282F2C7F80E890E02260FC01208381E806
:1005900090E0FC018081982F907E8E81292F282B5E
:1005A00081E890E02061FC01208386E890E02885C6
:1005B0003985FC013183208380E890E0FC012081B3
:1005C00080E890E02068FC01208356C080E890E03D
:1005D000FC018081282F2C7F80E890E02260FC01C4
:1005E000208381E890E0FC018081982F907E8E81AD
:1005F000292F282B81E890E02061FC01208386E8E8
:1006000090E028853985FC013183208380E890E0E3
:10061000FC01208180E890E02062FC0120832CC056
:1006200080EB90E0FC01208180EB90E02068FC01F1
:10063000208381EB90E0FC018081382F387F2E8170
:1006400081EB90E0232BFC01208316C080EB90E02F
:10065000FC01208180EB90E02062FC01208381EB93
:1006600090E0FC018081382F387F2E8181EB90E073
:10067000232BFC01208300008C8160E00E94D00BC2
:10068000000029960FB6F894DEBF0FBECDBFDF91F4
:10069000CF910895EF92FF920F931F93CF93DF9323
:1006A000CDB7DEB72A970FB6F894DEBF0FBECDBF29
:1006B0009E838D836F83488729870A878F8188234C
:1006C00019F461E0888542D760E088850E94D00BEC
:1006D00096D5DC01CB0189839A83AB83BC838FD50C
:1006E0009B01AC0189819A81AB81BC8179018A012E
:1006F000E81AF90A0A0B1B0BD801C70121E006977B
:10070000A105B10508F020E0222309F0E8CF61E05F
:1007100088850E94D00B73D5DC01CB0189839A8335
:10072000AB83BC836CD59B01AC0189819A81AB8181
:10073000BC81281B390B4A0B5B0B8A85882F90E004
:10074000A0E0B0E061E082179307A407B50708F4C2
:1007500060E0662309F0E6CF60E088850E94D00B58
:100760008F81882319F460E08985F0D620E432E493
:100770004FE050E061E089850E94580CDC01CB011C
:100780002D813E81F90180839183A283B383000090
:100790002A960FB6F894DEBF0FBECDBFDF91CF9182
:1007A0001F910F91FF90EF900895EF92FF920F939A
:1007B0001F93CF93DF93CDB7DEB72A970FB6F89488
:1007C000DEBF0FBECDBF80910402882311F01092CE
:1007D0000402CE01079605E023E043E060E05ADF23
:1007E00088EF91E09E838D8365E070E080E090E08B
:1007F000A7DD9C018D819E81FC01378326838F813B
:100800009885A985BA85BC01CD016FD3DC01CB01E8
:100810002EEA34ED43EB59E3BC01CD011CD4DC01DD
:10082000CB0120E030E040E050E4BC01CD01C4D277
:10083000DC01CB017C018D018091000190910101CF
:10084000A0910201B09103019C01AD01C801B70163
:10085000AFD218162CF0E12CF12C00E81FE303C0F6
:10086000E12CF12C87018091040190910501A09168
:100870000601B09107019C01AD01C801B701EBD39E
:10088000DC01CB0189839A83AB83BC8311E020E038
:1008900030E04FE753E469817A818B819C8188D273
:1008A00018160CF410E081E08127882341F080E0E5
:1008B00090E0AFE7B3E489839A83AB83BC8311E014
:1008C00020E030E0A90169817A818B819C81BFD3CE
:1008D00088230CF410E081E08127882321F019821D
:1008E0001A821B821C822091FE013091FF018981B6
:1008F0009A81AB81BC81AC01BD01C901A9DC0000BA
:100900002A960FB6F894DEBF0FBECDBFDF91CF9110
:100910001F910F91FF90EF900895EF92FF920F9328
:100920001F93CF93DF9300D0CDB7DEB783E491E080
:10093000FC01118210824FE050E060E070E088EF2F
:1009400091E00E944E1281E08093050281E090E0E8
:10095000A0E0B0E08093000290930102A093020215
:10096000B0930302109204021092F80181E0809388
:10097000060288EF91E09A83898381E090E0A0E00D
:10098000B0E08093F9019093FA01A093FB01B0933A
:10099000FC01E12CF12C870120E030E0A90165E0A9
:1009A00070E080E090E0FBDB9C0189819A81FC0192
:1009B0003783268381E08093FD0100000F900F9024
:1009C000DF91CF911F910F91FF90EF900895CF93FA
:1009D000DF9300D0CDB7DEB788EF91E09A838983AB
:1009E0008091F8018823B1F581E08093F80180912E
:1009F000F9019091FA01A091FB01B091FC010197DE
:100A0000A105B10539F58091FD01882319F165E053
:100A100070E080E090E094DC9C0189819A81FC0187
:100A2000378326838091FE019091FF0140E050E0E2
:100A3000BA010EDC65E070E080E090E081DC9C01B2
:100A400089819A81FC01378326838091FE019091F0
:100A5000FF0150DC00000F900F90DF91CF910895BF
:100A6000CF93DF93CDB7DEB726E030E040E855E224
:100A700060E070E080E090E004D00000DF91CF9172
:100A80000895CF93DF93CDB7DEB72A970FB6F894CA
:100A9000DEBF0FBECDBF9C838B834D835E836F8390
:100AA00078873A87298710924601109245018985F7
:100AB0009A859A8389838B819C818130910551F13C
:100AC000823091051CF4892B41F062C0823091057F
:100AD00099F1039709F442C05BC080914501909160
:100AE000460181709927892B09F04BC080914501FF
:100AF0009091460181609093460180934501298140
:100B00008D819E81AF81B885AC01BD018BE591E0FF
:100B1000DBD73EC0809145019091460182709927B4
:100B2000892B89F5809145019091460182609093CF
:100B30004601809345012CC080914501909146016A
:100B400084709927892B09F5809145019091460180
:100B5000846090934601809345011AC080914501BD
:100B60009091460188709927892B89F480914501DD
:100B70009091460188609093460180934501000062
:100B800007C0000005C0000003C0000001C0000055
:100B90002A960FB6F894DEBF0FBECDBFDF91CF917E
:100BA0000895CF93DF93CDB7DEB70000DF91CF91EB
:100BB0000895EF92FF920F931F93CF93DF9300D08E
:100BC00000D01F92CDB7DEB7198219D3DC01CB015B
:100BD00080934B0190934C01A0934D01B0934E0133
:100BE00020914B0130914C0140914D0150914E01AB
:100BF0008091470190914801A0914901B0914A012B
:100C000079018A01E81AF90A0A0B1B0BD801C701FE
:100C1000803A9648A140B10508F43CC080914B0150
:100C200090914C01A0914D01B0914E0180934701EC
:100C300090934801A0934901B0934A013AD0DFD282
:100C4000DC01CB018A839B83AC83BD838091470108
:100C500090914801A0914901B0914A012A813B81BC
:100C60004C815D8179018A01E81AF90A0A0B1B0B94
:100C7000D801C701803A9648A140B10538F081E01B
:100C800090E09093500180934F0104C01092500166
:100C900010924F0181E0898389810F900F900F900E
:100CA0000F900F90DF91CF911F910F91FF90EF90D8
:100CB0000895CF93DF93CDB7DEB78091510191E0D6
:100CC000980F90935101882361F081E090E0909318
:100CD000500180934F0180915101815080935101C7
:100CE00006C063DD80915101815080935101DF91F5
:100CF000CF910895CF93DF93CDB7DEB728970FB686
:100D0000F894DEBF0FBECDBF8DEC9CECACECBDE328
:100D100089839A83AB83BC831D821E821F821886BF
:100D20001092080210920702C9D29ADE809108013F
:100D300090910901FC0111821082EFDDF89431DFFE
:100D40008091080190910901FC018081918121E04D
:100D5000892B09F020E0822F80930702789417C036
:100D60008091080190910901FC018081918121E02D
:100D7000892B09F420E0822F8093080290910802C9
:100D800081E0992309F080E08093070212DF8091CF
:100D90000702882329F71BDEF89480E090E028966C
:100DA0000FB6F894DEBF0FBECDBFDF91CF9108958F
:100DB000D9D008F481E008950CD00FC107D140F0DC
:100DC000FED030F021F45F3F19F0F0C0511139C16D
:100DD000F3C014D198F39923C9F35523B1F3951BAC
:100DE000550BBB27AA2762177307840738F09F5F4C
:100DF0005F4F220F331F441FAA1FA9F333D00E2EBB
:100E00003AF0E0E830D091505040E695001CCAF727
:100E100029D0FE2F27D0660F771F881FBB1F2617EC
:100E200037074807AB07B0E809F0BB0B802DBF01BF
:100E3000FF2793585F4F2AF09E3F510568F0B6C0D8
:100E400000C15F3FECF3983EDCF38695779567959C
:100E5000B795F7959F5FC9F7880F911D9695879570
:100E600097F90895E1E0660F771F881FBB1F62178F
:100E700073078407BA0720F0621B730B840BBA0B4D
:100E8000EE1F88F7E095089504D06894B111D9C099
:100E90000895BCD088F09F5790F0B92F9927B7518B
:100EA000A0F0D1F0660F771F881F991F1AF0BA952E
:100EB000C9F712C0B13081F0C3D0B1E00895C0C00D
:100EC000672F782F8827B85F39F0B93FCCF3869524
:100ED00077956795B395D9F73EF490958095709581
:100EE00061957F4F8F4F9F4F0895E89409C097FBFE
:100EF0003EF490958095709561957F4F8F4F9F4FF1
:100F00009923A9F0F92F96E9BB279395F695879534
:100F100077956795B795F111F8CFFAF4BB0F11F4F7
:100F200060FF1BC06F5F7F4F8F4F9F4F16C088239E
:100F300011F096E911C0772321F09EE8872F762FD4
:100F400005C0662371F096E8862F70E060E02AF015
:100F50009A95660F771F881FDAF7880F9695879501
:100F600097F90895990F0008550FAA0BE0E8FEEFD6
:100F700016161706E807F907C0F012161306E4075D
:100F8000F50798F0621B730B840B950B39F40A2656
:100F900061F0232B242B252B21F408950A2609F434
:100FA000A140A6958FEF811D811D089597F99F6738
:100FB00080E870E060E008959FEF80EC08950024E1
:100FC0000A941616170618060906089500240A94AE
:100FD00012161306140605060895092E0394000C34
:100FE00011F4882352F0BB0F40F4BF2B11F460FFC3
:100FF00004C06F5F7F4F8F4F9F4F089557FD9058EC
:10100000440F551F59F05F3F71F04795880F97FBCC
:10101000991F61F09F3F79F0879508951216130686
:101020001406551FF2CF4695F1DF08C016161706B5
:101030001806991FF1CF86957105610508940895EA
:10104000E894BB2766277727CB0197F908958ADFB5
:1010500008F48FEF08950BD0C0CFB1DF28F0B6DFD2
:1010600018F0952309F0A2CFA7CF1124EACFC6DF4D
:10107000A0F3959FD1F3950F50E0551F629FF001AB
:10108000729FBB27F00DB11D639FAA27F00DB11D04
:10109000AA1F649F6627B00DA11D661F829F22278D
:1010A000B00DA11D621F739FB00DA11D621F839F14
:1010B000A00D611D221F749F3327A00D611D231FEA
:1010C000849F600D211D822F762F6A2F11249F5738
:1010D00050408AF0E1F088234AF0EE0FFF1FBB1F5B
:1010E000661F771F881F91505040A9F79E3F5105FA
:1010F00070F05CCFA6CF5F3FECF3983EDCF38695B3
:1011000077956795B795F795E7959F5FC1F7FE2BA4
:10111000880F911D9695879597F908951F920F92C4
:101120000FB60F9211248F939F93AF93BF93CF93DA
:10113000DF93CDB7DEB72597DEBFCDBF80915601D7
:1011400090915701A0915801B091590189839A83D8
:10115000AB83BC8380915A018D8389819A81AB8155
:10116000BC810196A11DB11D89839A83AB83BC8389
:101170008D818D5F8D838D818D3770F08D818D5741
:101180008D8389819A81AB81BC810196A11DB11D9E
:1011900089839A83AB83BC838D8180935A01898133
:1011A0009A81AB81BC818093560190935701A093A3
:1011B0005801B09359018091520190915301A0912F
:1011C0005401B09155010196A11DB11D80935201AA
:1011D00090935301A0935401B093550100000F90D8
:1011E0000F900F900F900F90DF91CF91BF91AF9123
:1011F0009F918F910F900FBE0F901F901895CF93D6
:10120000DF9300D000D000D0CDB7DEB78FE590E0FF
:10121000FC0180818D83F89480915201909153015B
:10122000A0915401B091550189839A83AB83BC830B
:1012300086E490E0FC0180818E8385E390E0FC01F0
:101240008081882F90E081709927892B71F08E81A1
:101250008F3F59F089819A81AB81BC810196A11D94
:10126000B11D89839A83AB83BC838FE590E02D8188
:10127000FC01208389819A81AB81BC812227382F90
:10128000492F5A2F8E81882F90E0A0E0B0E0820F86
:10129000931FA41FB51F880F991FAA1FBB1F880F7C
:1012A000991FAA1FBB1FBC01CD0126960FB6F8944B
:1012B000DEBF0FBECDBFDF91CF910895CF93DF93F7
:1012C000CDB7DEB7789484E490E0FC01208184E41B
:1012D00090E02260FC01208384E490E0FC01208106
:1012E00084E490E02160FC01208385E490E0FC012F
:1012F000208185E490E02260FC01208385E490E079
:10130000FC01208185E490E02160FC0120838EE6D1
:1013100090E0FC0120818EE690E02160FC012083BA
:1013200081E890E0FC01108281E890E0FC012081DE
:1013300081E890E02260FC01208381E890E0FC01DC
:10134000208181E890E02160FC01208380E890E02A
:10135000FC01208180E890E02160FC01208381EB8A
:1013600090E0FC01208181EB90E02460FC0120836F
:1013700080EB90E0FC01208180EB90E02160FC019B
:1013800020838AE790E0FC0120818AE790E02460D6
:10139000FC0120838AE790E0FC0120818AE790E04D
:1013A0002260FC0120838AE790E0FC0120818AE72B
:1013B00090E02160FC0120838AE790E0FC0120811D
:1013C0008AE790E02068FC01208381EC90E0FC013A
:1013D00010820000DF91CF910895CF93DF9300D06A
:1013E00000D000D0CDB7DEB78C837E836D8361E003
:1013F0008C81ACD08D819E81892B21F460E08C8121
:10140000CFD19AC08D819E818F3F910521F461E0FB
:101410008C81C6D191C08C81882F90E082559F4FDE
:101420009A83898389819A81FC0184918B838B8142
:10143000882F90E08330910591F18430910534F448
:101440008130910571F00297D9F069C0873091051C
:1014500009F447C08830910509F452C0049781F11E
:101460005EC084E490E0FC01208184E490E0206888
:10147000FC01208387E490E02D81FC0120835CC087
:1014800084E490E0FC01208184E490E02062FC018F
:10149000208388E490E02D81FC0120834DC080E80A
:1014A00090E0FC01208180E890E02068FC0120832E
:1014B00088E890E02D813E81FC01318320833CC08F
:1014C00080E890E0FC01208180E890E02062FC014F
:1014D00020838AE890E02D813E81FC0131832083C6
:1014E0002BC080EB90E0FC01208180EB90E0206835
:1014F000FC01208383EB90E02D81FC0120831CC044
:1015000080EB90E0FC01208180EB90E02062FC0108
:10151000208384EB90E02D81FC0120830DC08D8120
:101520009E818038910524F460E08C8139D104C01B
:1015300061E08C8135D100C0000026960FB6F8948A
:10154000DEBF0FBECDBFDF91CF910895CF93DF9364
:10155000CDB7DEB769970FB6F894DEBF0FBECDBF2B
:10156000888F698F888D882F90E086569F4F9A8349
:10157000898389819A81FC0184918B838B818C83FF
:10158000888D882F90E08A579F4F9E838D838D8111
:101590009E81FC0184918F838F8188878885882331
:1015A00009F495C08885882F90E0880F991F885985
:1015B0009F4F9A87898789859A85FC012591349167
:1015C000CF013C872B879A8789878B859C859E874F
:1015D0008D878885882F90E0880F991F8E589F4FA0
:1015E000988B8F878F859889FC0125913491CF0145
:1015F0003A8B298B988B8F8789899A899C8B8B8BC7
:10160000898D882331F58FE590E0FC0180818F8BF7
:10161000F8948D859E85FC018081982F8C81809522
:101620008923282F8D859E85FC0120838B899C89A9
:10163000FC018081982F8C8180958923282F8B89AC
:101640009C89FC0120838FE590E02F89FC01208399
:101650003FC0898D823021F58FE590E0FC018081CB
:101660008E8BF8948D859E85FC018081982F8C81CE
:1016700080958923282F8D859E85FC0120838B8969
:101680009C89FC0190818C81292F282B8B899C8936
:10169000FC0120838FE590E02E89FC01208318C097
:1016A0008FE590E0FC0180818D8BF8948D859E857F
:1016B000FC0190818C81292F282B8D859E85FC0132
:1016C00020838FE590E02D89FC01208301C000007C
:1016D00069960FB6F894DEBF0FBECDBFDF91CF91F4
:1016E0000895CF93DF931F92CDB7DEB789838981A9
:1016F000882F90E08330910591F08430910534F487
:101700008130910501F1029741F145C08730910583
:1017100071F188309105A9F1049759F03CC080E837
:1017200090E0FC01208180E890E02F77FC0120838D
:1017300032C080E890E0FC01208180E890E02F7DBD
:10174000FC01208328C084E490E0FC01208184E433
:1017500090E02F77FC0120831EC084E490E0FC0120
:10176000208184E490E02F7DFC01208314C080EB75
:1017700090E0FC01208180EB90E02F77FC0120833A
:101780000AC080EB90E0FC01208180EB90E02F7D8F
:10179000FC012083000000000F90DF91CF9108959D
:1017A000CF93DF93CDB7DEB765970FB6F894DEBF62
:1017B0000FBECDBF8C8B6D8B8C89882F90E08255AE
:1017C0009F4F9A83898389819A81FC0184918B83BD
:1017D0008B818C838C89882F90E086569F4F9E83C7
:1017E0008D838D819E81FC0184918F838F81888779
:1017F0008C89882F90E08A579F4F9A87898789859F
:101800009A85FC0184918B878B858C878C858823B6
:1018100009F444C08C81882311F08C8162DF8C85AF
:10182000882F90E0880F991F8E589F4F9E878D8735
:101830008D859E85FC0125913491CF01388B2F87B2
:101840009E878D878F8598899A8B898B8FE590E00D
:10185000FC0180818B8BF8948D89882371F48989B0
:101860009A89FC018081982F888580958923282F6B
:1018700089899A89FC0120830BC089899A89FC0196
:1018800090818885292F282B89899A89FC012083BA
:101890008FE590E02B89FC01208301C00000659654
:1018A0000FB6F894DEBF0FBECDBFDF91CF91089584
:1018B0000F931F93CF93DF93CDB7DEB76B970FB620
:1018C000F894DEBF0FBECDBF8E8B6F8B288F398F04
:1018D0004A8F5B8F8E89882F90E086569F4F9A8320
:1018E000898389819A81FC0184918B838B818C838C
:1018F0008E89882F90E08A579F4F9E838D838D819C
:101900009E81FC0184918F838F8188878F898823B2
:1019100011F08C8101C080E08987888D998DAA8D16
:10192000BB8DBF708A879B87AC87BD878885882FD2
:1019300090E0880F991F84589F4F9F878E878E85D0
:101940009F85FC0125913491CF01398B288B9F878E
:101950008E8788899989FC018A859B85AC85BD85A0
:101960008C019D0149856C81CF010E948A00DC01B8
:10197000CB018A8B9B8BAC8BBD8B8A899B89AC8975
:10198000BD89892B8A2B8B2B49F08A899B89AC894D
:10199000BD890196A11DB11DBF7003C080E090E01C
:1019A000DC01BC01CD016B960FB6F894DEBF0FBE13
:1019B000CDBFDF91CF911F910F910895CF93DF930A
:1019C000CDB7DEB7F89481E0DF91CF910895CF9342
:1019D000DF9300D0CDB7DEB79A8389838FE590E09F
:1019E00029813A81F9012081FC01208300000F90B8
:1019F0000F90DF91CF910895CF93DF9300D01F9286
:101A0000CDB7DEB79B838A838A819B81FC01848D5D
:101A1000882F90E02A813B81820F931F835A9F4F2A
:101A2000FC01808189838A819B81FC01848D882FC0
:101A300090E001968F739078992324F40197806C3D
:101A40009F6F0196282F8A819B81FC01248F8A81B8
:101A50009B81FC01868997892981FC0120838A81E9
:101A60009B81FC0180899189FC0180818370282FF2
:101A700020648A819B81FC0180899189FC012083FB
:101A80008A819B81FC01238D8A819B81FC01948D3D
:101A900081E0291709F080E0882379F08A819B8111
:101AA000FC0182899389FC0120818A819B81FC0150
:101AB000828993892F7DFC01208300000F900F9075
:101AC0000F90DF91CF910895CF93DF93CDB7DEB71D
:101AD00029970FB6F894DEBF0FBECDBF9C838B83D2
:101AE0004D835E836F837887298780E099E0ADE33B
:101AF000B0E02D813E814F815885BC01CD01A2D43B
:101B0000DA01C9010197A109B109B695A795979581
:101B100087959A8389838B819C81FC018089918937
:101B200022E0FC0120838D819E81AF81B8858115E3
:101B3000914EA105B10529F089819A8181159041C5
:101B4000E8F08B819C81FC0180899189FC011082E5
:101B500080E894E8AEE1B0E02D813E814F81588568
:101B6000BC01CD016FD4DA01C9010197A109B10906
:101B7000B695A795979587959A83898389819A8148
:101B8000292F33278B819C81FC0184859585FC015D
:101B900020838B819C81FC01868597852981FC01AE
:101BA00020838B819C81FC01108E8B819C81FC01A8
:101BB000848995892985FC0120838B819C81FC0186
:101BC00082899389FC0120818B819C81FC0182891F
:101BD00093892061FC0120838B819C81FC01828997
:101BE0009389FC0120818B819C81FC0182899389EE
:101BF0002860FC0120838B819C81FC018289938970
:101C0000FC0120818B819C81FC0182899389206861
:101C1000FC0120838B819C81FC0182899389FC01DA
:101C200020818B819C81FC01828993892F7DFC011D
:101C30002083000029960FB6F894DEBF0FBECDBFFB
:101C4000DF91CF910895CF93DF9300D0CDB7DEB76A
:101C50009A83898389819A81FC01818D882F90E004
:101C60009C01205C3F4F89819A81FC01828D882FE5
:101C700090E0A901481B590BCA018F7399270F9057
:101C80000F90DF91CF910895CF93DF9300D0CDB720
:101C9000DEB79A83898389819A81FC01218D8981AC
:101CA0009A81FC01928D81E0291709F080E0882358
:101CB00019F08FEF9FEF0FC089819A81FC01828D0F
:101CC000882F90E029813A81820F931F4D96FC0165
:101CD0008081882F90E00F900F90DF91CF91089531
:101CE000CF93DF9300D01F92CDB7DEB79B838A835B
:101CF0008A819B81FC01218D8A819B81FC01928DCF
:101D000081E0291709F080E0882319F08FEF9FEF19
:101D10001CC08A819B81FC01828D882F90E02A81E2
:101D20003B81820F931F4D96FC01808189838A81BC
:101D30009B81FC01828D8F5F282F2F738A819B816D
:101D4000FC01228F8981882F90E00F900F900F90D7
:101D5000DF91CF910895CF93DF9300D000D0CDB71E
:101D6000DEB79C838B838B819C81FC01838D89836F
:101D70008B819C81FC01848D8A8399818A8198174B
:101D800068F08981882F90E02FE330E0281B390B21
:101D90008A81882F90E0820F931F0BC08A81282FA1
:101DA00030E08981882F90E0A901481B590BCA01B6
:101DB00001970F900F900F900F90DF91CF910895A2
:101DC000CF93DF9300D0CDB7DEB79A838983898123
:101DD0009A81FC01908D81E08927882309F04DC00C
:101DE00089819A81FC0182899389FC018081882FF5
:101DF00090E080729927892B69F489819A81FC018E
:101E000080899189FC018081882F90E080749927D6
:101E1000892B11F481E001C080E0882379F18FE5FE
:101E200090E0FC01808188237CF089819A81FC010B
:101E300082899389FC018081882F90E080729927A4
:101E4000892B11F081E001C080E0882349F289816B
:101E50009A81FC0180899189FC018081882F90E022
:101E60008072992721E0892B09F420E0222309F4CC
:101E7000B7CF89819A81C0DDB3CF00000F900F905A
:101E8000DF91CF910895CF93DF93CDB7DEB7289739
:101E90000FB6F894DEBF0FBECDBF9F838E836887D9
:101EA0008E819F8121E0FC01208F8E819F81FC012A
:101EB000238D8E819F81FC01848D281779F48E817A
:101EC0009F81FC0180899189FC018081882F90E0AD
:101ED00080729927892B11F081E001C080E088236E
:101EE00059F18FE590E0FC0180818C8367DD898367
:101EF00089818823D9F08E819F81FC018689978909
:101F00002885FC0120838E819F81FC018089918935
:101F1000FC0180818370282F20648E819F81FC01C9
:101F200080899189FC0120831982E2CFCE01049639
:101F30004EDD81E090E06EC08E819F81FC01838D3B
:101F4000882F90E001968F739078992324F401975D
:101F5000806C9F6F01968B838E819F81FC01948D95
:101F600081E02B81291709F080E08823F9F08FE5C3
:101F700090E0FC0180818095881F8827881F882336
:101F800059F38E819F81FC0180899189FC018081B8
:101F9000882F90E08072992721E0892B09F420E0B6
:101FA0002223D1F28E819F8127DDD6CF8E819F8122
:101FB000FC01838D882F90E02E813F81820F931F3B
:101FC000835A9F4F2885FC0120838FE590E0FC0118
:101FD00080818D83F3DC8A838A818823B1F08E81AE
:101FE0009F812B81FC01238F8E819F81FC0182893F
:101FF0009389FC0120818E819F81FC0182899389D4
:102000002062FC0120831A82E7CFCE010596DFDC37
:1020100081E090E028960FB6F894DEBF0FBECDBFEA
:10202000DF91CF910895CF93DF9300D0CDB7DEB786
:102030009A83898322E331E089819A81FC0131838B
:10204000208389819A81FC011382128200000F9003
:102050000F90DF91CF910895CF93DF9300D0CDB74C
:10206000DEB79A83898380E090E00F900F90DF9134
:10207000CF910895CF93DF9300D0CDB7DEB79A8389
:10208000898300000F900F90DF91CF910895CF9337
:10209000DF9300D0CDB7DEB79A83898389819A8197
:1020A000C2DF20E231E089819A81FC013183208303
:1020B00029813A8188EE93E0A0E0B0E0F9018483C1
:1020C0009583A683B78300000F900F90DF91CF9187
:1020D0000895CF92DF92EF92FF920F931F93CF93C9
:1020E000DF93CDB7DEB72E970FB6F894DEBF0FBEE5
:1020F000CDBF9A8389837C836B835E834D833887CE
:102100002F831A870987FC86EB86DE86CD86898138
:102110009A81BDDF2EE031E089819A81FC01318313
:10212000208389819A812B813C81FC01358724871A
:1021300089819A812D813E81FC013787268789819B
:102140009A812F813885FC01318B208B89819A817E
:1021500029853A85FC01338B228B89819A812B85D5
:102160003C85FC01358B248B89819A812D853E85A8
:10217000FC01378B268B89819A81FC01118E898124
:102180009A81FC01128E89819A81FC01138E8981CA
:102190009A81FC01148E00002E960FB6F894DEBFD3
:1021A0000FBECDBFDF91CF911F910F91FF90EF90A8
:1021B000DF90CF900895CF93DF9300D000D0CDB7BC
:1021C000DEB79C838B838B819C81FC018089918904
:1021D000FC018081882F90E08470992721E0892B71
:1021E00009F020E0222371F18B819C81FC0186891A
:1021F0009789FC01808189838B819C81FC01818D81
:102200008F5F8F738A838B819C81FC01928D81E02B
:102210002A81291709F480E08823D9F08B819C81D9
:10222000FC01818D882F90E02B813C81820F931FD0
:102230004D962981FC0120838B819C812A81FC01A0
:10224000218F07C08B819C81FC0186899789FC01C5
:10225000808100000F900F900F900F90DF91CF9131
:1022600008951F920F920FB60F9211242F933F9350
:102270004F935F936F937F938F939F93AF93BF938E
:10228000EF93FF93CF93DF93CDB7DEB78BE591E06C
:1022900092DF0000DF91CF91FF91EF91BF91AF915D
:1022A0009F918F917F916F915F914F913F912F916E
:1022B0000F900FBE0F901F9018951F920F920FB6A0
:1022C0000F9211242F933F934F935F936F937F93BC
:1022D0008F939F93AF93BF93EF93FF93CF93DF932E
:1022E000CDB7DEB78BE591E087DB0000DF91CF91C2
:1022F000FF91EF91BF91AF919F918F917F916F91DE
:102300005F914F913F912F910F900FBE0F901F90B3
:102310001895CF92DF92EF92FF920F931F93CF9376
:10232000DF9300D000D0CDB7DEB79A8389837C835A
:102330006B8389819A810197C9F48B819C81019675
:10234000A9F40F2EF6ECCF2ED12CF02D0F2EF2EC9F
:10235000EF2EF12CF02D01EC10E020EC30E044ECFD
:1023600050E065EC70E08BE591E0B3DE00000F908B
:102370000F900F900F90DF91CF911F910F91FF90D1
:10238000EF90DF90CF900895CF93DF93CDB7DEB776
:102390006FEF7FEF81E090E0BCDFDF91CF91089598
:1023A000CF93DF93CDB7DEB728970FB6F894DEBF93
:1023B0000FBECDBF9C838B837E836D8358874F83F5
:1023C0001A8219828F8198859C01215031093887A2
:1023D0002F8321E0892B09F420E0222319F18B813E
:1023E0009C81FC0180819181FC01208131818D8162
:1023F0009E81AC014F5F5F4F5E834D83FC01408146
:102400008B819C81642FF901099521E0892B09F4C6
:1024100020E0222331F089819A8101969A83898371
:10242000D1CF000089819A8128960FB6F894DEBF3B
:102430000FBECDBFDF91CF910895CF93DF93CDB77E
:10244000DEB728D0A1E21A2EAA1BBB1BFD010DC0CE
:10245000AA1FBB1FEE1FFF1FA217B307E407F50754
:1024600020F0A21BB30BE40BF50B661F771F881F30
:10247000991F1A9469F760957095809590959B01C6
:10248000AC01BD01CF010895EE0FFF1F0590F4913F
:10249000E02D099481E090E0F89407C0DC0101C0D0
:0E24A0006D9341505040E0F70895F894FFCF3F
:1024AE00CDCC4C3D00004843430100000000430FDB
:1024BE00D011AB0EE00E230E700E440E0000000085
:1024CE001D12D0112C103A101D121D121D120000DB
:0A24DE0000001D12D0112C103A105E
:00000001FF
