:1000000061C0000086C0000084C0000082C0000003
:1000100080C000007EC000007CC000007AC00000EC
:1000200078C000000DC5000074C0000072C0000060
:1000300070C000006EC000006CC000006AC000000C
:10004000F0C7000066C000000C94FA0A0C942C0B58
:1000500060C000005EC000005CC000005AC000002C
:1000600058C0000056C00000000000080002010057
:100070000003040700000000000000000102040863
:100080001020408001020408102001020408102002
:10009000040404040404040402020202020203032E
:1000A00003030303000000002300260029000000D2
:1000B0000000250028002B0000000000240027007D
:1000C0002A00510B11241FBECFEFD8E0DEBFCDBFF9
:1000D00011E0A0E0B1E0EAEAF7E102C005900D927C
:1000E000A834B107D9F722E0A8E4B1E001C01D921D
:1000F000A835B207E1F710E0C2E6D0E004C02197CE
:10010000FE010E94CD0BC136D107C9F738D50C943A
:10011000D30B76CFCF92DF92EF92FF920F931F9384
:10012000E82FF92F05C0015011092109310961F1AA
:10013000908196239417B9F305C001501109210944
:10014000310911F1908196239413F7CFC12CD12C52
:10015000E12CF12C0AC08FEFC81AD80AE80AF80A75
:100160000C151D052E053F0579F080818623841727
:1001700091F36C2D7D2D8E2D9F2D1F910F91FF9052
:10018000EF90DF90CF90089560E070E080E090E025
:100190001F910F91FF90EF90DF90CF900895611124
:1001A00002C00C943F096130E1F362E0FACF6623AC
:1001B00019F061E00C947B0960E0FCCFCF92DF92F4
:1001C000EF92FF92CF93882331F16A017B01CFEF49
:1001D000C80F20E030E0A901CB01B6016CD587FF44
:1001E00010C0C701B6019058D7D59B01AC016C2F48
:1001F00070E090E080E0CF91FF90EF90DF90CF90A3
:10020000ACC0C701B601C3D58C2FCF91FF90EF9042
:10021000DF90CF90B0C7CF91FF90EF90DF90CF905D
:1002200008950F931F938B019C0183E036952795CA
:10023000179507958A95D1F7085B1E4F462F477093
:1002400021E030E0F90102C0EE0FFF1F4A95E2F70E
:10025000AF01F80120812423CB010196211102C0B6
:1002600090E080E01F910F9108950F931F938B01F1
:100270009C0183E036952795179507958A95D1F7C8
:10028000677081E090E001C0880F6A95EAF7F80195
:10029000E85BFE4F2081452B31F4809582238083DB
:1002A0001F910F910895822BFACF2F923F924F9278
:1002B0005F926F927F928F929F92AF92BF92CF92F6
:1002C000DF92EF92FF920F931F93CF93DF93D62E7F
:1002D000C72E782E692E49015A01280161E08D2D23
:1002E000CED7CD2DDC2D8E010F5F1F4FA8016D2DB8
:1002F0007C2D872D962DB9DF20E030E0A901C201C9
:10030000B70128D6181654F4C201B70145D52B0100
:10031000C501B40141D5A201CE0122D0C801DF91AF
:10032000CF911F910F91FF90EF90DF90CF90BF90F2
:10033000AF909F908F907F906F905F904F903F9085
:100340002F900895882341F08150682F70E090E04D
:1003500080E050E040E089CF0895862FB9010BC7B7
:100360009C01FC01E859FF4FE491E33059F138F466
:10037000E13009F1E23019F160E0822FBCC7E730CB
:10038000C1F1E83009F441C0E430B1F78091800058
:100390008C7F82608093800090918100907E90613C
:1003A000692B609381005093870040938600809171
:1003B000800080621BC084B5806884BDDDCF84B5B9
:1003C0008062FBCF809180008C7F82608093800070
:1003D00090918100907E9061692B60938100509391
:1003E0008700409386008091800080688093800021
:1003F000C3CF8091B00080688093B0008091B1003D
:10040000887F682B6093B100B7CF8091B000806285
:10041000F3CF4F925F926F927F92AF92BF92CF9243
:10042000DF92EF92FF920F931F93CF93DF935C01C4
:10043000162FC42FD22F611103C061E0842F1FD764
:1004400060E08C2F58D737D62B013C0134D6641985
:100450007509860997096630710581059105B0F324
:1004600061E08C2F48D727D62B013C01C02ED12C20
:10047000F12CE12C20D66419750986099709C61656
:10048000D706E806F906B0F760E08C2F34D71111D3
:1004900003C060E08D2FF3D620E432E44FE050E05B
:1004A00061E08D2F55D7F50160837183828393833B
:1004B000DF91CF911F910F91FF90EF90DF90CF9040
:1004C000BF90AF907F906F905F904F900895FC0128
:1004D00091E080915401811190E091830895809181
:1004E00054018F5F8A3018F480935401089510925C
:1004F000540108954F925F926F927F928F929F92D4
:10050000AF92BF92CF92DF92EF92FF920F931F9321
:10051000CF93DF93CDB7DEB728970FB6F894DEBF41
:100520000FBECDBF8091360281111092360205E0D8
:1005300023E043E060E0CE0101966BDF20910001F3
:1005400030910101409102015091030160E070E09F
:1005500080E89FE3B4D36D837E838F83988769811E
:100560007A818B819C8144D42EEA34ED43EB59E3AC
:10057000F5D420E030E040E05FE3F0D420911C01AE
:1005800030911D0140911E0150911F01E3D41816B6
:100590000CF0F3C0C0901401D0901501E09016014A
:1005A000F09017018090200190902101A0902201ED
:1005B000B090230120912401309125014091260122
:1005C00050912701C701B601C9D42B013C012091EC
:1005D0002C0130912D0140912E0150912F01C50128
:1005E000B401BCD49B01AC01C301B20100D32D8185
:1005F0003E814F815885B2D42B013C0120912801C6
:100600003091290140912A0150912B01C701B60177
:10061000A5D46B017C0120913001309131014091D2
:10062000320150913301C501B40198D49B01AC0152
:10063000C701B601DCD22D813E814F8158858ED411
:100640006B017C0111E0A3019201609104017091A2
:10065000050180910601909107017CD487FD10E08F
:10066000612F8DE0A4DD11E0A301920160910801EA
:100670007091090180910A0190910B011CD3181609
:100680000CF410E0612F8CE092DD69E070E080E016
:1006900090E0C7DD5C019093310280933002E894D2
:1006A00077F820E030E04FE753E4C301B20103D311
:1006B000181634F4412C512C9FE7692E93E4792EBF
:1006C000B301A201C5017ADD11E0A7019601609195
:1006D0000C0170910D0180910E0190910F013AD49F
:1006E00087FD10E0612F88E062DD11E0A70196012F
:1006F000609110017091110180911201909113018C
:10070000DAD218160CF410E0612F8BE050DD6AE0AD
:1007100070E080E090E085DD5C0190932902809399
:100720002802E894F7F820E030E04FE753E4C701EF
:10073000B601C1D2181634F4C12CD12C8FE7E82EA3
:1007400083E4F82EB701A601C50138DD28960FB65F
:10075000F894DEBF0FBECDBFDF91CF911F910F91F7
:10076000FF90EF90DF90CF90BF90AF909F908F90D1
:100770007F906F905F904F900895C0901801D09037
:100780001901E0901A01F0901B010CCF8F929F92FB
:10079000AF92BF92DF92EF92FF920F931F93CF938E
:1007A000DF9384E090E006D1E1E5F1E084E0DF0151
:1007B0001D928A95E9F7C2E0D2E08CE3FE01119226
:1007C0008A95E9F7DD24D394DDAA812C912C54017C
:1007D000839488AA99AAAAAABBAAD9AE89869A861E
:1007E000AB86BC8661E08DE0DADCDD861882D8AEAF
:1007F00089829A82AB82BC8261E08CE0D0DCDD82AF
:1008000018A6DFAA89A69AA6ABA6BCA6E12CF12C55
:100810008701A801970169E070E080E090E045DD84
:100820009FA78EA7DDA6188EDBAE898E9A8EAB8E23
:10083000BC8E61E088E0B3DCDD8E188ADAAE898A8E
:100840009A8AAB8ABC8A61E08BE0A9DCDD8A18A2B7
:10085000DEAA89A29AA2ABA2BCA2A80197016AE073
:1008600070E080E090E021DD9FA38EA3DDA2DF9108
:10087000CF911F910F91FF90EF90DF90BF90AF90BD
:100880009F908F90089580910A02811103C081E0AA
:1008900080930A0280910202811103C081E080935B
:1008A000020280912A0281112AC081E080932A02EB
:1008B00080912B0290912C02A0912D02B0912E02DA
:1008C0000197A105B105D9F480912F028823B9F0D1
:1008D00069E070E080E090E0A4DC909331028093C6
:1008E000300240E050E0BA0169DC69E070E080E08D
:1008F00090E097DC909331028093300223DD809169
:100900001A02811103C081E080931A0280911202C1
:10091000811103C081E08093120280912202811133
:100920002AC081E0809322028091230290912402C8
:10093000A0912502B09126020197A105B105D9F435
:10094000809127028823B9F06AE070E080E090E0AF
:1009500068DC909329028093280240E050E0BA01BD
:100960002DDC6AE070E080E090E05BDC909329028F
:1009700080932802E7CC089560E070E080E89FE76C
:10098000089560E070E080E89FE7089560E070E01F
:1009900080E89FEF089560E070E080E89FEF0895A1
:1009A00060E070E080EC9FEF089560E070E080EC24
:1009B0009FEF0895F5DF60934A0270934B02809396
:1009C0004C0290934D02F1DF60933E0270933F0220
:1009D0008093400290934102CFDF60934602709370
:1009E00047028093480290934902CBDF6093420212
:1009F000709343028093440290934502C7DF609353
:100A00004E0270934F028093500290935102C3DFC5
:100A10006093520270935302809354029093550254
:100A2000089526E030E040E855E260E070E090E0B4
:100A300080E000C0892B19F485E691E07BC508951C
:100A40001F920F920FB60F9211242F933F934F9343
:100A50005F936F937F938F939F93AF93BF93EF9326
:100A6000FF9383E88093B200809155018F5F80935C
:100A70005501853019F4109255012FD0FF91EF9157
:100A8000BF91AF919F918F917F916F915F914F91A6
:100A90003F912F910F900FBE0F901F90189583E8F4
:100AA0008093B200A0E7B0E08C918E7F8C93E0EB56
:100AB000F0E080818C7F8083E1EBF0E08081877FB4
:100AC000808380818660808380818E7F80838C910B
:100AD00081608C93089581E00895CF93DF9300D0D7
:100AE000CDB7DEB78091580191E0980F90935801EF
:100AF000882369F021E030E030935B0120935A01B4
:100B0000809358010F900F90DF91CF910895CE01FF
:100B10000196DDDC7894E3DCF894809158018150F3
:100B2000809358018A81882389F08091570191E050
:100B3000980F90935701882349F021E030E03093DB
:100B40005B0120935A0180935701DCCF80915701BC
:100B50008823C1F2809159018111D4CF81E0809323
:100B600059017894C7DCF8948091570181508093A3
:100B7000570180915901815080935901C3CFCF9380
:100B8000DF931092570210925602BAD24ADFC091F8
:100B90003401D091350119821882F8DDF8947FDF95
:100BA00081E028813981232B09F080E0809356026F
:100BB0007894789480915602811107C064DEF8948D
:100BC00090E080E0DF91CF91089581E02881398124
:100BD000232B09F480E0809357029091570281E023
:100BE000911180E08093560276DFE4CF5058BB2706
:100BF000AA270ED075C166D130F06BD120F031F448
:100C00009F3F11F41EF45BC10EF4E095E7FB51C168
:100C1000E92F77D180F3BA17620773078407950726
:100C200018F071F49EF58FC10EF4E0950B2EBA2FDB
:100C3000A02D0B01B90190010C01CA01A0011124E2
:100C4000FF27591B99F0593F50F4503E68F11A168E
:100C5000F040A22F232F342F4427585FF3CF46951F
:100C600037952795A795F0405395C9F77EF41F1641
:100C7000BA0B620B730B840BBAF09150A1F0FF0F0B
:100C8000BB1F661F771F881FC2F70EC0BA0F621FF7
:100C9000731F841F48F4879577956795B795F795E7
:100CA0009E3F08F0B3CF9395880F08F09927EE0F79
:100CB000979587950895D9D008F481E008950CD0D0
:100CC0000FC107D140F0FED030F021F45F3F19F0A2
:100CD000F0C0511139C1F3C014D198F39923C9F36D
:100CE0005523B1F3951B550BBB27AA276217730732
:100CF000840738F09F5F5F4F220F331F441FAA1FE6
:100D0000A9F333D00E2E3AF0E0E830D091505040A5
:100D1000E695001CCAF729D0FE2F27D0660F771F53
:100D2000881FBB1F261737074807AB07B0E809F035
:100D3000BB0B802DBF01FF2793585F4F2AF09E3FCA
:100D4000510568F0B6C000C15F3FECF3983EDCF39C
:100D5000869577956795B795F7959F5FC9F7880F43
:100D6000911D9695879597F90895E1E0660F771F95
:100D7000881FBB1F621773078407BA0720F0621B26
:100D8000730B840BBA0BEE1F88F7E095089504D01F
:100D90006894B111D9C00895BCD088F09F5790F0E5
:100DA000B92F9927B751A0F0D1F0660F771F881F90
:100DB000991F1AF0BA95C9F712C0B13081F0C3D0AB
:100DC000B1E00895C0C0672F782F8827B85F39F049
:100DD000B93FCCF3869577956795B395D9F73EF4EF
:100DE00090958095709561957F4F8F4F9F4F089597
:100DF000E89409C097FB3EF49095809570956195B5
:100E00007F4F8F4F9F4F9923A9F0F92F96E9BB276A
:100E10009395F695879577956795B795F111F8CFE6
:100E2000FAF4BB0F11F460FF1BC06F5F7F4F8F4F51
:100E30009F4F16C0882311F096E911C0772321F047
:100E40009EE8872F762F05C0662371F096E8862FDF
:100E500070E060E02AF09A95660F771F881FDAF736
:100E6000880F9695879597F90895990F0008550F63
:100E7000AA0BE0E8FEEF16161706E807F907C0F020
:100E800012161306E407F50798F0621B730B840B28
:100E9000950B39F40A2661F0232B242B252B21F402
:100EA00008950A2609F4A140A6958FEF811D811DA2
:100EB000089597F99F6780E870E060E008959FEFDC
:100EC00080EC089500240A941616170618060906E1
:100ED000089500240A9412161306140605060895B0
:100EE000092E0394000C11F4882352F0BB0F40F438
:100EF000BF2B11F460FF04C06F5F7F4F8F4F9F4F78
:100F0000089557FD9058440F551F59F05F3F71F0F9
:100F10004795880F97FB991F61F09F3F79F0879560
:100F20000895121613061406551FF2CF4695F1DFE9
:100F300008C0161617061806991FF1CF8695710579
:100F4000610508940895E894BB2766277727CB01AD
:100F500097F908958ADF08F48FEF08950BD0C0CF7A
:100F6000B1DF28F0B6DF18F0952309F0A2CFA7CFA4
:100F70001124EACFC6DFA0F3959FD1F3950F50E07F
:100F8000551F629FF001729FBB27F00DB11D639F3B
:100F9000AA27F00DB11DAA1F649F6627B00DA11DE1
:100FA000661F829F2227B00DA11D621F739FB00D87
:100FB000A11D621F839FA00D611D221F749F3327F7
:100FC000A00D611D231F849F600D211D822F762F90
:100FD0006A2F11249F5750408AF0E1F088234AF08D
:100FE000EE0FFF1FBB1F661F771F881F91505040D9
:100FF000A9F79E3F510570F05CCFA6CF5F3FECF3A1
:10100000983EDCF3869577956795B795F795E795C4
:101010009F5FC1F7FE2B880F911D9695879597F9D5
:1010200008951F920F920FB60F9211242F933F93A2
:101030008F939F93AF93BF9380915D0190915E01D9
:10104000A0915F01B091600130915C0123E0230F1A
:101050002D3758F50196A11DB11D20935C01809399
:101060005D0190935E01A0935F01B0936001809158
:10107000610190916201A0916301B09164010196B8
:10108000A11DB11D8093610190936201A093630142
:10109000B0936401BF91AF919F918F913F912F9138
:1010A0000F900FBE0F901F90189526E8230F029601
:1010B000A11DB11DD2CF3FB7F894809161019091ED
:1010C0006201A0916301B091640126B5A89B05C09F
:1010D0002F3F19F00196A11DB11D3FBFBA2FA92FB7
:1010E000982F8827BC01CD01620F711D811D911DB4
:1010F00042E0660F771F881F991F4A95D1F7089520
:10110000789484B5826084BD84B5816084BD85B5E2
:10111000826085BD85B5816085BDEEE6F0E08081A9
:1011200081608083E1E8F0E01082808182608083CA
:10113000808181608083E0E8F0E08081816080834D
:10114000E1EBF0E0808184608083E0EBF0E080817F
:1011500081608083EAE7F0E0808184608083808121
:1011600082608083808181608083808180688083C9
:101170001092C10008951F93CF93DF93182FEB01B6
:1011800061E07DD0209731F460E0812FDF91CF9135
:101190001F91B1C0CF3FD10511F461E0F6CFE12F2F
:1011A000F0E0E859FF4FE491E33031F140F4E130F1
:1011B000B1F0E230E1F0C038D1057CF7E5CFE7309F
:1011C00029F1E83059F1E430B1F780918000806274
:1011D00080938000D0938B00C0938A0004C084B5B4
:1011E000806884BDC7BDDF91CF911F91089584B5FC
:1011F000806284BDC8BDF7CF8091800080688093F5
:101200008000D0938900C0938800EDCF8091B0001A
:1012100080688093B000C093B300E5CF8091B000A8
:1012200080628093B000C093B400DDCF833081F042
:1012300028F4813099F08230A9F008958730A9F020
:101240008830C9F08430B1F4809180008F7D03C074
:10125000809180008F7780938000089584B58F7788
:1012600084BD089584B58F7DFBCF8091B0008F77CA
:101270008093B00008958091B0008F7DF9CFCF9317
:10128000DF9390E0FC01E458FF4F249180579F4F7B
:10129000FC0184918823C9F090E0880F991FFC011C
:1012A000E854FF4FA591B491FC01E255FF4FC59161
:1012B000D49161110DC09FB7F8948C912095822331
:1012C0008C938881282328839FBFDF91CF91089535
:1012D000623051F49FB7F8943C91822F809583231C
:1012E0008C93E8812E2BEFCF8FB7F894EC912E2BB7
:1012F0002C938FBFEACF1F93CF93DF93282F30E03B
:10130000F901E859FF4F8491F901E458FF4FD49156
:10131000F901E057FF4FC491CC23A1F0162F8111A2
:1013200085DFEC2FF0E0EE0FFF1FE255FF4FA59198
:10133000B4918FB7F894EC91111108C0D095DE23C9
:10134000DC938FBFDF91CF911F910895DE2BF8CFF3
:101350000F931F9390E0FC01E458FF4F7491FC0140
:10136000E057FF4FE4916111672FF0E0EE0FFF1F90
:10137000EC55FF4F8591949189019A013F70462F5A
:10138000672F0E948A00611571058105910529F07A
:101390006F5F7F4F8F4F9F4F9F701F910F910895E9
:1013A000FC01918D228D892F90E0805C9F4F821BE4
:1013B00091098F7399270895FC01918D828D98175B
:1013C00031F0828DE80FF11D858D90E008958FEF4B
:1013D0009FEF0895FC01918D828D981761F0A28D89
:1013E000AE0FBF2FB11D5D968C91928D9F5F9F7345
:1013F000928F90E008958FEF9FEF0895FC01538D39
:10140000448D252F30E0842F90E0821B930B5417DE
:1014100010F0CF96089501970895FC01A48DA80FB0
:10142000B92FB11DA35ABF4F2C91848D90E0019626
:101430008F739927848FA689B7892C93A089B18946
:101440008C91837080648C93938D848D981306C0E7
:101450000288F389E02D80818F7D80830895CF936A
:10146000DF93EC01888D8823B1F0AA89BB89E889D4
:10147000F9898C9185FD03C0808186FD0CC00FB673
:1014800007FCF7CF8C9185FFF2CF808185FFEDCFF0
:10149000CE01C3DFEACFDF91CF910895EF92FF92A3
:1014A0000F931F93CF93DF93EC0181E0888F9B8D87
:1014B0008C8D98131AC0E889F989808185FF15C041
:1014C0009FB7F894EE89FF896083E889F989808164
:1014D0008370806480839FBF81E090E0DF91CF9133
:1014E0001F910F91FF90EF900895F62E0B8D10E055
:1014F0000F5F1F4F0F731127E02E8C8D8E110BC0C5
:101500000FB607FCFACFE889F989808185FFF5CF0E
:10151000CE0183DFF2CFEB8DEC0FFD2FF11DE35AEF
:10152000FF4FF0829FB7F8940B8FEA89FB89808187
:101530008062D0CFCF92DF92EF92FF921F93CF9332
:10154000DF93EC016A017B01122FE889F98982E0BF
:101550008083C11481EED806E104F10499F060E0C3
:1015600079E08DE390E0A7019601F5D02150310993
:10157000410951095695479537952795211580E1E1
:10158000380790F0E889F989108260E874E88EE104
:1015900090E0A7019601DFD021503109410951099E
:1015A0005695479537952795EC85FD853083EE85D3
:1015B000FF852083188EEC89FD891083EA89FB89D9
:1015C000808180618083EA89FB8980818860808353
:1015D000EA89FB89808180688083EA89FB89808130
:1015E0008F7D8083DF91CF911F91FF90EF90DF90EF
:1015F000CF9008951F920F920FB60F9211242F9340
:101600008F939F93EF93FF93E0917501F091760193
:101610008081E0917B01F0917C0182FD1BC0908173
:1016200080917E018F5F8F7320917F01821741F03F
:10163000E0917E01F0E0EB59FE4F958F80937E01A3
:10164000FF91EF919F918F912F910F900FBE0F906F
:101650001F9018958081F4CF1F920F920FB60F92B2
:1016600011242F933F934F935F936F937F938F93A7
:101670009F93AF93BF93EF93FF9385E691E0CDDE09
:10168000FF91EF91BF91AF919F918F917F916F915A
:101690005F914F913F912F910F900FBE0F901F9030
:1016A0001895E5E6F1E01382128288EE93E0A0E05F
:1016B000B0E084839583A683B7838AE391E0918326
:1016C000808385EC90E09587848784EC90E0978711
:1016D000868780EC90E0918B808B81EC90E0938BFF
:1016E000828B82EC90E0958B848B86EC90E0978BDC
:1016F000868B118E128E138E148E0895AF92BF9228
:10170000CF92DF92EF92FF920F931F93CF93DF93CD
:101710006C017B018B01040F151FEB015E01AE18FC
:10172000BF08C017D10759F06991D601ED91FC911E
:101730000190F081E02DC6010995892B79F7C5014B
:10174000DF91CF911F910F91FF90EF90DF90CF909D
:10175000BF90AF900895A1E21A2EAA1BBB1BFD01FA
:101760000DC0AA1FBB1FEE1FFF1FA217B307E40780
:10177000F50720F0A21BB30BE40BF50B661F771FD8
:10178000881F991F1A9469F76095709580959095B8
:101790009B01AC01BD01CF010895EE0FFF1F059025
:0A17A000F491E02D0994F894FFCFB6
:1017AA00B6F3FD3C0000000000000000000000004D
:1017BA00000000000000003F00000000CDCC4C3EBD
:1017CA00000000000000803F0000803F96438B3DF0
:1017DA0096438BBD5101000000004E0A7E0BFE09A4
:0817EA002F0AD009EA09DC090D
:00000001FF
